:100000000C942A000C9434000C9434000C943400AA
:100010000C9434000C9434000C9434000C94340090
:100020000C9434000C9434000C9434000C94340080
:100030000C9434000C9434000C9434000C94340070
:100040000C9434000C9434000C9434000C94340060
:100050000C94340011241FBECFE5D4E0DEBFCDBF29
:100060000E9436000C9414020C9400006F927F9250
:100070008F929F92BF92CF92DF92EF92FF920F9357
:100080001F93DF93CF9300D000D000D0CDB7DEB761
:100090000E940801BB246E010894C11CD11C93E08E
:1000A000892E912C8C0E9D1E85E0682E712C6C0E75
:1000B0007D1E76C08B2D8A3074F48B2D992787FD99
:1000C0009095B6014AE050E00E94CF0180E360E8DD
:1000D0000E944D010CC08B2D992787FD9095B6018C
:1000E0004AE050E00E94CF0180E80E94AE01C601C4
:1000F0000E948B018AE361E00E94D600EE24FF2477
:100100009E2D9A305CF4C701B4014AE050E00E9491
:10011000CF0180E363E80E944D0109C0C701B4012B
:100120004AE050E00E94CF0183E80E94AE01C40182
:100130000E948B018AE361E00E94D60000E010E09B
:100140000A305CF4C801B3014AE050E00E94CF01DC
:1001500080E366E80E944D0109C086E80E94AE0176
:10016000C801B3014AE050E00E94CF01C3010E94E0
:100170008B018FE79DE3A5E181509040A040E1F71E
:1001800000C000000F5F1F4F0C331105C9F6089423
:10019000E11CF11C9CE3E916F10409F0B1CFB39422
:1001A000AB2DA8310CF486CFBB2487CF2FEF39EFCE
:1001B00040E0215030404040E1F700C000009AB3D9
:1001C000906F9ABB9BB3906F9BBBC198662311F451
:1001D000C29801C0C29A2BB3982F907F2F70922B98
:1001E0009BBBC09AEFE9FFE03197F1F700C0000038
:1001F000C0989BB38295807F9F70892B8BBBC09AE0
:100200008FE99FE00197F1F700C00000C0980895C2
:100210008FEF99EFA0E081509040A040E1F700C03F
:1002200000008AB3806F8ABB8BB3806F8BBB87B3B0
:10023000876087BB88B3856088BBC1988FEF99EFD3
:10024000A0E081509040A040E1F700C0000088E2AB
:1002500060E00E94D60088E260E00E94D60088E25A
:1002600060E00E94D60088E260E00E94D60081E053
:1002700060E00E94D60086E060E00E94D6008FEF2A
:1002800099EFA0E081509040A040E1F700C000004D
:100290008CE060E00E94D60008951F93182F862FEF
:1002A0002FEF39EF40E0215030404040E1F700C0EF
:1002B000000060E00E94D6008AB3806F8ABB8BB3D7
:1002C000806F8BBBC198C29A9BB3812F807F9F7038
:1002D000892B8BBBC09A8FE99FE00197F1F700C093
:1002E0000000C0988BB31295107F8F70182B1BBB2A
:1002F000C09AAFE9BFE01197F1F700C00000C098C5
:100300002FEF39EF40E0215030404040E1F700C08E
:1003100000001F910895EF92FF92CF93DF93E82E94
:10032000E7017E01F92EE70103C061E00E94D600DB
:1003300089918823D1F7DF91CF91FF90EF900895B5
:10034000813011F480E801C088EA60E00E94D600A4
:10035000089581E060E00E94D600089560E00E9468
:10036000D60008958AB38F708ABB8BB3806F8BBB26
:10037000C19AC298C09A8FE19EE40197F1F700C03C
:10038000000089B3C098C09AEFE1FEE43197F1F71D
:1003900000C0000099B3C09887FDECCF0895FB0121
:1003A0009F01E8944230C4F04532B4F44A3029F455
:1003B00097FB1EF4909581959F4F642F77270E949D
:1003C0000002805D8A330CF0895D8193CB01009738
:1003D000A1F716F45DE251931082C9010C94F0016B
:1003E000DC01FC01672F71917723E1F7329704C09C
:1003F0007C916D9370836291AE17BF07C8F3089527
:10040000AA1BBB1B51E107C0AA1FBB1FA617B7073A
:1004100010F0A61BB70B881F991F5A95A9F7809556
:0C0420009095BC01CD010895F894FFCF29
:00000001FF
